:100000000C9446000C945D000C945D000C945D0013
:100010000C945D000C945D000C945D000C945D00EC
:100020000C945D000C945D000C945D000C945D00DC
:100030000C945D000C945D000C945D000C945D00CC
:100040000C945D000C945D000C945D000C945D00BC
:100050000C945D000C945D000C945D000C945D00AC
:100060000C945D000C945D000C945D000C945D009C
:100070000C945D000C945D000C945D000C945D008C
:100080000C945D000C945D000C945D0011241FBE67
:10009000CFEFD0E4DEBFCDBF11E0A0E0B1E0E8E3F8
:1000A000F1E000E00BBF02C007900D92AE30B10747
:1000B000D9F70E9470000C949A000C940000CF9322
:1000C000C82F8A3019F48DE00E945F009091C00023
:1000D00095FFFCCFC093C60080E090E0CF910895DB
:1000E00011B88FEF82B914B885B917B888B98AB931
:1000F0001BB820B183B146B1820F840F91E08D38D7
:1001000008F490E0421740F430E0241B3109213517
:10011000310564F092600AC0241740F450E0BA013F
:10012000621B7109613571050CF092608C7F892B1F
:080130008BB9DFCFF894FFCF7B
:0E01380000000002000000005F000000000058
:00000001FF
