:100000000C9446000C945D000C945D000C945D0013
:100010000C945D000C945D000C945D000C945D00EC
:100020000C945D000C945D000C945D000C945D00DC
:100030000C945D000C945D000C945D000C945D00CC
:100040000C945D000C945D000C945D000C945D00BC
:100050000C945D000C945D000C945D000C945D00AC
:100060000C945D000C945D000C945D000C945D009C
:100070000C945D000C945D000C945D000C945D008C
:100080000C945D000C945D000C945D0011241FBE67
:10009000CFEFD0E4DEBFCDBF11E0A0E0B1E0ECE1F6
:1000A000F1E000E00BBF02C007900D92AE30B10747
:1000B000D9F70E947A000C948C000C940000CF9326
:1000C000C82F8A3019F48DE00E945F009091C00023
:1000D00095FFFCCFC093C60080E090E0CF910895DB
:1000E00090E004C0282F2170920F86958111FACFDD
:1000F000892F089511B88FEF82B914B885B987B9DF
:1001000018B880B1D3B10E947000C82F8D2F0E9403
:0C01100070008C0F88B9F5CFF894FFCF79
:0E011C0000000002000000005F000000000074
:00000001FF
