:100000000C9446000C945D000C945D000C945D0013
:100010000C945D000C945D000C945D000C945D00EC
:100020000C945D000C945D000C945D000C945D00DC
:100030000C945D000C945D000C945D000C945D00CC
:100040000C945D000C945D000C945D000C945D00BC
:100050000C945D000C945D000C945D000C945D00AC
:100060000C945D000C945D000C945D000C945D009C
:100070000C945D000C945D000C945D000C945D008C
:100080000C945D000C945D000C945D0011241FBE67
:10009000CFEFD0E4DEBFCDBF11E0A0E0B1E0EEE1F4
:1000A000F1E000E00BBF02C007900D92AE30B10747
:1000B000D9F70E9470000C948D000C940000CF932F
:1000C000C82F8A3019F48DE00E945F009091C00023
:1000D00095FFFCCFC093C60080E090E0CF910895DB
:1000E0001AB88FEF8BB98EEF84B981E085B989B1E9
:1000F00090E0880F991F43B1242F217030E0820FC8
:10010000931F8634910520F4069720F084E003C005
:0E01100082E001C080E085B9EACFF894FFCF0D
:0E011E0000000002000000005F000000000072
:00000001FF
